:1000000013308A006F2B00000A108A100A11820731
:1000100028340C34013406340A108A100A1182077D
:100020002034203420342034203420342034203430
:100030002034203420342034203420342034203420
:10004000203420342034203400340A108A100A115D
:1000500082072034203400340A108A100A118207E3
:10006000203420344F34703465346E3420342034DE
:1000700020342034203420342034203443346C3471
:100080006F3473346534203400340A108A100A1136
:1000900082073C342D34203420342034203443343F
:1000A0005534413420344434413420344D344F34B9
:1000B0002034203420342D343E3400340A108A1089
:1000C0000A1182073C342D342034433455344134F2
:1000D00020344D344F342034473441344E342034AE
:1000E00048344534543420342D343E3400340A101E
:1000F0008A100A1182073C342D342034433455349D
:1001000041342034443441344E34473420344F3465
:10011000203447344934553441342D343E3400348E
:100120000A108A100A1182073C342D3420342034FE
:100130004334553441342034443441344E3447340C
:1001400020344D344F342034203420342D343E3488
:1001500000340A108A100A1182073C342D342034EE
:100160004534523452344F3452342034533457349B
:10017000203444344F344F345234203420342D341E
:100180003E3400340A108A100A1182073C342D34A0
:1001900020344334553441342034443441344E34D3
:1001A0004734203444344F344E34473420342034E0
:1001B0002D343E3400340A108A100A1182073C3470
:1001C0002D34433455344134203444344F344E3488
:1001D00047342034473441344E3420344834453495
:1001E00054342D343E3400340A108A100A11FB3E78
:1001F00003188A0A82003C342D34203420344334DE
:1002000055344134203444344134203444344F3460
:100210004E3447342034203420342D343E340034DE
:100220000A148A100A1182073C342D3420344334D6
:10023000593443344C344F34543452344F344E34A4
:1002400020344F34503445344E3420342D343E3431
:1002500000340A148A100A1182073C342D342034E9
:100260004334593443344C344F34543452344F347F
:100270004E34203443344C344F34533445342D34CD
:100280003E3400340A148A100A1182073C342D349B
:1002900020344334593443344C344F34543452347E
:1002A0004F344E34203420344D34493444342034D7
:1002B0002D343E3400340A148A100A1182073C346B
:1002C0002D342034203445344D34453452344734B1
:1002D00045344E34433459342E342E342E342034A5
:1002E00020342D343E3400340A148A100A11820757
:1002F0002034443455344E34473420344D344F3454
:10030000493420345434483441344F342034543444
:10031000413443342034203400340A148A100A1142
:1003200082073C342D34203420342034203453349C
:1003300054344F345034453444342E342E342E3417
:100340002034203420342D343E3400340A148A10F2
:100350000A118207203420342034443455344E347A
:10036000473420345434483441344F3420345434E6
:100370004134433420342034203400340A148A10A9
:100380000A11820720342034443441344E34473437
:1003900020344D344F34203453344C3449344434B5
:1003A00045342E342E342E3400340A148A100A11A7
:1003B0008207203420342034203420344434413423
:1003C00020344D344F34203453344C344934443485
:1003D0004534203420342034203400340A148A1068
:1003E0000A11F53E03188A0A820020342034203492
:1003F000203453344C344934443445342034443468
:10040000413420344D344F3400340A108A140A1118
:10041000820748344F344E344734203453345734F1
:10042000203443344C344F34533445342034533423
:100430004C3449344434453400340A108A140A11C7
:1004400082072034443441344E3447342034443419
:100450004F344E344734203453344C3449344434CC
:1004600045342E342E342E3400340A108A140A11E6
:1004700082072034203420344C344F344934203423
:1004800044344F344E344734203453344C3449349C
:100490004434453420342034203400340A108A1483
:1004A0000A11820720342034203453344C34493428
:1004B00044344534203444344134203444344F34BB
:1004C0004E344734203420342034203400340A1091
:1004D0008A140A1182074534523452344F3452344C
:1004E00020345334573420344F34503445344E3450
:1004F000203453344C3449344434453400340A10E5
:100500008A140A1182074F34503445344E34203453
:10051000533445344D34493420343C342D342D3457
:1005200000340A108A140A1182072034203420343F
:10053000533454344F34503420344F3450344534D1
:100540004E34203444344F344F3452342034203429
:10055000203400340A108A140A118207203420340F
:100560002034443441344E34473420344D344F34F5
:10057000203443345534413420343C342D342D342C
:100580002034203400340A108A140A1182072034DF
:100590002034203420344434413420344D344F341A
:1005A00020344334553441342E342E342E34203408
:1005B00020342034203400340A108A140A118207AF
:1005C0002034443441344E34473420344434553498
:1005D0004E34473420345434483441344F3420347A
:1005E00054344134433400340A108A140A11FB3E57
:1005F00003188A0A82002034203420342034203426
:100600004D344F34203443345534413420343C3459
:100610002D342D3420342034203420342034003440
:100620000A148A140A11820720344F345034453496
:100630004E34203444344F344F3452342034483410
:1006400020345334503445344534443400340A148F
:100650008A140A11820720344F34503445344E3402
:10066000203444344F344F34523420345334203403
:100670005334503445344534443400340A148A1415
:100680000A11820720342034203443345534413455
:100690002034443441342034443455344F344334CA
:1006A00020344D344F3400340A148A140A1182075E
:1006B000203420342034203444344F344E344734F2
:1006C000203443345534413420342D342D343E34D9
:1006D00000340A148A140A11820720342034533457
:1006E00054344F345034203443344C344F34533426
:1006F0004534203444344F344F34523400340A14D7
:100700008A140A118207203443344C344F34533452
:100710004534203444344F344F3452342034483438
:1007200020345334503445344534443400340A14AE
:100730008A140A118207203443344C344F34533422
:100740004534203444344F344F34523420345334FD
:1007500020345334503445344534443400340A147E
:100760008A140A118207203420344334553441342A
:100770002034443441342034443455344F344334E9
:10078000203444344F344E34473400340A148A142D
:100790000A1182072034563441344E342034543404
:1007A000483441344E344834203443346F342E348A
:1007B0006C3474346434203400340A148A140A11FA
:1007C00082072034283430343534313431342934FC
:1007D00020343334363434342034373436343734F8
:1007E00036342034203400340A148A140A11FB3EB3
:1007F00003188A0A82000C3420342034203449340F
:100800004E3449345434493441344C3449345A34E4
:1008100049344E3447342E342E342E3400340A10EA
:100820008A100A1582072034203443345934433463
:100830004C344F34543452344F344E3420344434D6
:100840004F344F34523420342D343E3400340A10A7
:100850008A100A15820720342034563441344E342D
:1008600020345434483441344E34483420344334F2
:100870006F342E346C347434643400340A108A10AB
:100880000A158207203420342034203420342034C8
:10089000523445344134443459342E342E342E34B9
:1008A00000340A108A100A158207203420342834B4
:1008B000303435343134313429342034333436341F
:1008C00034342034373436343734363400340A1074
:1008D0008A100A1582072034443455344E34473484
:1008E00020344D344F344934203454344834413466
:1008F0004F3420345434413443342034003483168C
:1009000006128612061386138610061186118312AC
:10091000061183160611831286118316861183121F
:100920008610831686100F308312B5003530840090
:10093000831300080319AA2C0130F800F701F70B04
:100940009F2CF80B9E2C4A30F700F70BA52CA82CF7
:10095000800B9C2C0130A8002808033C031CF42CBD
:100960000330BC003C18B62C0612B72C06168316B2
:1009700006128312BC18BE2C8612BF2C8616831654
:10098000861283123C19C62C0613C72C0617831631
:1009900006138312BC19CE2C8613CF2C8617831610
:1009A000861300008312861483168610D72C8312B8
:1009B00086108316861005308312B500353084000A
:1009C000831300080319F22C0130F800F701F70B2C
:1009D000E72CF80BE62C4A30F700F70BED2CF02C47
:1009E000800BE42CA80AAC2C0230BC003C18FA2C7A
:1009F0000612FB2C0616831606128312BC18022D53
:100A00008612032D86168316861283123C190A2D30
:100A100006130B2D0617831606138312BC19122D0D
:100A20008613132D861783168613000083128614EF
:100A3000831686101B2D8312861083168610831250
:100A4000A8012808033C031C342E28080420A90010
:100A5000B9012908BA000611831606110616861672
:100A600006178617831286158316861100008312D7
:100A700086148316861000008312BD0183160616A5
:100A800000308312061A0130BD048316861600302A
:100A90008312861A0130F7000310F70D7708BD04A2
:100AA0008316061700308312061B0130F700F70D7E
:100AB000F70DFC30F7057708BD0483168617003064
:100AC0008312861B0130F700F70DF70DF70DF83094
:100AD000F7057708BD043D08F8007808BC008610CB
:100AE0008316861000008312861483168610000079
:100AF0008312BD018316061600308312061A0130D8
:100B0000BD048316861600308312861A0130F70062
:100B10000310F70D7708BD04831606170030831203
:100B2000061B0130F700F70DF70DFC30F7057708CD
:100B3000BD048316861700308312861B0130F70030
:100B4000F70DF70DF70DF830F7057708BD043D08F0
:100B5000F8007808BB0086108316861006128612ED
:100B60000613861383123C0EF700F030F705770862
:100B70003B04F8007808BB00BB1FC02D83162E2D48
:100B8000B908031DC52D0611C62D061583160611BD
:100B900000008312861183168611000083128610CE
:100BA0008316861083123A0EBB000F30BB053B083C
:100BB000BC003C18DD2D0612DE2D0616831606122B
:100BC0008312BC18E52D8612E62D86168316861232
:100BD00083123C19ED2D0613EE2D0617831606130E
:100BE0008312BC19F52D8613F62D861783168613EE
:100BF00000008312861483168610FE2D8312861041
:100C00008316861083123A080F39BB003B08BC00DC
:100C10003C180C2E06120D2E061683160612831291
:100C2000BC18142E8612152E861683168612831271
:100C30003C191C2E06131D2E06178316061383124D
:100C4000BC19242E8613252E8617831686130000C2
:100C500083128614831686102D2E83128610831617
:100C600086108312A80A212D8A110A16A22B360B90
:100C70003A2E3D2E4030B7003E2EB70101303502EE
:100C8000B70737088038B800B9013808BA0006112C
:100C90008316061106168616061786178312861502
:100CA00083168611000083128614831686100000B6
:100CB0008312BD018316061600308312061A013016
:100CC000BD048316861600308312861A0130F700A1
:100CD0000310F70D7708BD04831606170030831242
:100CE000061B0130F700F70DF70DFC30F70577080C
:100CF000BD048316861700308312861B0130F7006F
:100D0000F70DF70DF70DF830F7057708BD043D082E
:100D1000F8007808BC008610831686100000831245
:100D200086148316861000008312BD0183160616F2
:100D300000308312061A0130BD0483168616003077
:100D40008312861A0130F7000310F70D7708BD04EF
:100D50008316061700308312061B0130F700F70DCB
:100D6000F70DFC30F7057708BD04831686170030B1
:100D70008312861B0130F700F70DF70DF70DF830E1
:100D8000F7057708BD043D08F8007808BB00861019
:100D900083168610061286120613861383123C0EE3
:100DA000F700F030F70577083B04F8007808BB003F
:100DB000BB1FDC2E83164A2EB908031DE12E061137
:100DC000E22E061583160611000083128611831683
:100DD00086110000831286108316861083123A0E45
:100DE000BB000F30BB053B08BC003C18F92E0612B7
:100DF000FA2E0616831606128312BC18012F8612CD
:100E0000022F86168316861283123C19092F0613A9
:100E10000A2F0617831606138312BC19112F861387
:100E2000122F8617831686130000831286148316EA
:100E300086101A2F831286108316861083123A08A2
:100E40000F39BB003B08BC003C18282F0612292F85
:100E50000616831606128312BC18302F8612312F05
:100E600086168316861283123C19382F0613392FE3
:100E70000617831606138312BC19402F8613412FC1
:100E80008617831686130000831286148316861035
:100E9000492F831286108316861083120034303057
:100EA0008400831300080319622F0630F800F7014D
:100EB000F70B582FF80B572F7B30F700F70B5E2FEF
:100EC000800B552F003401303202FC3E0318C32F33
:100ED000043EC42F0130B500B6003726B3013308F5
:100EE0000C20003803197A2FB30AB4008A150020A9
:100EF0008A116F2F0130B500B6003726C32F01309D
:100F0000B5000230B6003726B30133080C20003894
:100F10000319902FB30AB4008A1500208A11852F77
:100F20000130B5000230B6003726C32F1530B500AA
:100F30000130B6003726B30133080C2000380319FE
:100F4000A72FB30AB4008A1500208A119C2F1530F0
:100F5000B5000130B6003726C32F1530B50002307A
:100F6000B6003726B30133080C2000380319BE2F12
:100F7000B30AB4008A1500208A11B32F1530B500CA
:100F80000230B600372600340A148A140A15820784
:100F90006A2F7F2F962FAD2F0808AF0026088800F4
:100FA00089100530B0004F2789142F0888000034BD
:0C0FB00009100530B0004F270914003470
:1010000034080C3A03190B28063A03192C29023A22
:10101000031934293F2AB9010130BA000611831699
:10102000061106168616061786178312861583166E
:101030008611000083128614831686100000831226
:10104000BD018316061600308312061A0130BD0456
:101050008316861600308312861A0130F7000310BB
:10106000F70D7708BD048316061700308312061BA0
:101070000130F700F70DF70DFC30F7057708BD04D8
:101080008316861700308312861B0130F700F70D98
:10109000F70DF70DF830F7057708BD043D08F800A7
:1010A0007808BC0086108316861000008312861410
:1010B0008316861000008312BD01831606160030C9
:1010C0008312061A0130BD0483168616003083127F
:1010D000861A0130F7000310F70D7708BD04831658
:1010E000061700308312061B0130F700F70DF70DCD
:1010F000FC30F7057708BD0483168617003083128D
:10110000861B0130F700F70DF70DF70DF830F705E6
:101110007708BD043D08F8007808BB0086108316E8
:101120008610061286120613861383123C0EF700F1
:10113000F030F70577083B04F8007808BB00BB1FC8
:10114000A32883161128B908031DA8280611A92869
:101150000615831606110000831286118316861168
:101160000000831286108316861083123A0EBB008D
:101170000F30BB053B08BC003C18C0280612C12834
:101180000616831606128312BC18C8288612C928B0
:1011900086168316861283123C19D0280613D1288E
:1011A0000617831606138312BC19D8288613D9286C
:1011B0008617831686130000831286148316861002
:1011C000E128831286108316861083123A080F399D
:1011D000BB003B08BC003C18EF280612F02806169E
:1011E000831606128312BC18F7288612F828861672
:1011F0008316861283123C19FF280613002906174E
:10120000831606138312BC1907298613082986172B
:101210008316861300008312861483168610102905
:10122000831286108316861002308312B500353083
:1012300084008313000803192B290130F800F701FB
:10124000F70B2029F80B1F294A30F700F70B262946
:101250002929800B1D294B2B0130B5000230B60027
:101260008A1137268A154B2BB9011030BA000611A6
:10127000831606110616861606178617831286151C
:1012800083168611000083128614831686100000D0
:101290008312BD018316061600308312061A013030
:1012A000BD048316861600308312861A0130F700BB
:1012B0000310F70D7708BD0483160617003083125C
:1012C000061B0130F700F70DF70DFC30F705770826
:1012D000BD048316861700308312861B0130F70089
:1012E000F70DF70DF70DF830F7057708BD043D0849
:1012F000F8007808BC008610831686100000831260
:1013000086148316861000008312BD01831606160C
:1013100000308312061A0130BD0483168616003091
:101320008312861A0130F7000310F70D7708BD0409
:101330008316061700308312061B0130F700F70DE5
:10134000F70DFC30F7057708BD04831686170030CB
:101350008312861B0130F700F70DF70DF70DF830FB
:10136000F7057708BD043D08F8007808BB00861033
:1013700083168610061286120613861383123C0EFD
:10138000F700F030F70577083B04F8007808BB0059
:10139000BB1FCC2983163A29B908031DD129061190
:1013A000D2290615831606110000831286118316B2
:1013B00086110000831286108316861083123A0E5F
:1013C000BB000F30BB053B08BC003C18E9290612E6
:1013D000EA290616831606128312BC18F129861212
:1013E000F22986168316861283123C19F9290613F0
:1013F000FA290617831606138312BC19012A8613CD
:10140000022A861783168613000083128614831619
:1014100086100A2A831286108316861083123A08D1
:101420000F39BB003B08BC003C18182A0612192AC9
:101430000616831606128312BC18202A8612212A49
:1014400086168316861283123C19282A0613292A27
:101450000617831606138312BC19302A8613312A05
:10146000861783168613000083128614831686104F
:10147000392A831286108316861083124B2B013073
:10148000B9003408BA00061183160611061686162E
:10149000061786178312861583168611000083129D
:1014A00086148316861000008312BD01831606166B
:1014B00000308312061A0130BD04831686160030F0
:1014C0008312861A0130F7000310F70D7708BD0468
:1014D0008316061700308312061B0130F700F70D44
:1014E000F70DFC30F7057708BD048316861700302A
:1014F0008312861B0130F700F70DF70DF70DF8305A
:10150000F7057708BD043D08F8007808BC00861090
:10151000831686100000831286148316861000003E
:101520008312BD018316061600308312061A01309D
:10153000BD048316861600308312861A0130F70028
:101540000310F70D7708BD048316061700308312C9
:10155000061B0130F700F70DF70DFC30F705770893
:10156000BD048316861700308312861B0130F700F6
:10157000F70DF70DF70DF830F7057708BD043D08B6
:10158000F8007808BB0086108316861006128612B3
:101590000613861383123C0EF700F030F705770828
:1015A0003B04F8007808BB00BB1FD82A8316462AE4
:1015B000B908031DDD2A0611DE2A06158316061159
:1015C0000000831286118316861100008312861094
:1015D0008316861083123A0EBB000F30BB053B0802
:1015E000BC003C18F52A0612F62A061683160612C7
:1015F0008312BC18FD2A8612FE2A861683168612CE
:1016000083123C19052B0613062B061783160613A7
:101610008312BC190D2B86130E2B86178316861387
:1016200000008312861483168610162B83128610F0
:101630008316861083123A080F39BB003B08BC00A2
:101640003C18242B0612252B06168316061283122D
:10165000BC182C2B86122D2B86168316861283120D
:101660003C19342B0613352B0617831606138312E9
:10167000BC193C2B86133D2B86178316861300005E
:101680008312861483168610452B831286108316C8
:10169000861083124B2B00340130B500B6008A113E
:1016A00037268A150130A5002508143C031C622B3F
:1016B000FF30B40000200F30B0008A114F278A1588
:1016C000A50A542B1430B5000230B6008A11372613
:1016D0008A15FF30B40000200F30B0008A114F2768
:1016E0008A152830B5000130B6008A1137268A15D0
:1016F000FF30B40000200F30B0008A114F278A1548
:101700000130A5002508143C031C9A2B2508293C10
:10171000A8002808B5000230B6008A1137268A15BD
:10172000FF30B40000200F30B0008A114F278A1517
:10173000A50A822B1530B5000130B6008A11372674
:101740008A15FF30B40000200F30B0008A114F27F7
:101750008A150130B5000230B6008A1137268A1585
:10176000FF30B40000200F30B0008A114F278A15D7
:101770000230B500B6008A1137268A15A90129085A
:101780008A11C6238A1500380319CA2BA90AB40086
:101790000020BF2B1630B5000130B6008A11372665
:1017A0008A15A90129088A11DD238A150038031931
:1017B000DD2BA90AB4000020D22B0230A900FA3098
:1017C000B0008A114F278A15A90BDF2B0130B50015
:1017D000B6008A1137268A15A90129088A11F4232F
:1017E0008A1500380319F82BA90AB4000020ED2B44
:1017F0000130B5000230B6008A1137268A15A901DA
:1018000029088A110F248A15003803190B2CA90AFC
:10181000B4000020002C1530B5000130B6008A114C
:1018200037268A15A90129088A1127248A15003824
:1018300003191E2CA90AB4000020132C1530B50082
:101840000230B6008A1137268A150130A500250816
:10185000143C031C352CFF30B40000201E30B000B7
:101860008A114F278A15A50A272C0230A900FA30C1
:10187000B0008A114F278A15A90B372C0130B2000E
:101880008A1163278A15A90129088A113E248A151D
:10189000003803194F2CA90AB4000020442C04304E
:1018A000B2008A1163278A15A90129088A115124D7
:1018B0008A1500380319602CA90AB4000020552CA1
:1018C0008A110A16A62B2B10AC01071A692C0130BD
:1018D000AC0087196D2C0230AC000719712C033055
:1018E000AC008718752C0430AC000718792C053033
:1018F000AC00FF30A2008316870083120708AD00FA
:101900002C08053CAF00AE012E08043C031CAA2C99
:101910002F082E02031C982C2D08F7002E08F80023
:101920000319962C0310F70CF80B922C77182B1434
:101930002F082E020318A82C2D08F7002E08F800F7
:101940000319A62C0310F70CF80BA22C771C2B14F0
:10195000AE0A842C2B1CAE2C0630AC0021082C02C5
:1019600003190A2E0130B2008A1163278A15201C40
:101970001B2D2C08F93E03181A2D073E0D2EB00121
:1019800030088A1145208A1500380319CB2CB00A7B
:10199000B4000020C02C1A2DB00130088A115E203E
:1019A0008A1500380319D82CB00AB4000020CD2CB9
:1019B0001A2DB00130088A1177208A1500380319D2
:1019C000E52CB00AB4000020DA2C1A2DB001300842
:1019D0008A1177208A1500380319F22CB00AB40056
:1019E0000020E72C1A2DB00130088A1190208A15AA
:1019F00000380319FF2CB00AB4000020F42C1A2D73
:101A0000B00130088A1190208A15003803190C2D76
:101A1000B00AB4000020012D1A2DB00130088A113F
:101A2000A9208A1500380319192DB00AB400002026
:101A30000E2D1A2DBC2DA01C7F2D2C08F93E03184D
:101A40007E2D073E182EB00130088A11C2208A155B
:101A5000003803192F2DB00AB4000020242D7E2D4C
:101A6000B00130088A11C2208A15003803193C2DB4
:101A7000B00AB4000020312D7E2DB00130088A114B
:101A800077208A1500380319492DB00AB4000020C8
:101A90003E2D7E2DB00130088A1177208A1500383E
:101AA0000319562DB00AB40000204B2D7E2DB00135
:101AB00030088A11DB208A1500380319632DB00A1B
:101AC000B4000020582D7E2DB00130088A11F4207A
:101AD0008A1500380319702DB00AB4000020652D56
:101AE0007E2DB00130088A11A9208A15003803190B
:101AF0007D2DB00AB4000020722D7E2DBC2D2C0847
:101B00000319892D053A0319962D033A0319A32DBC
:101B1000B02DB00130088A1110218A150038031940
:101B2000952DB00AB40000208A2DBC2DB0013008DC
:101B30008A1129218A1500380319A22DB00AB40090
:101B40000020972DBC2DB00130088A11A9208A15DC
:101B500000380319AF2DB00AB4000020A42DBC2D0D
:101B6000B00130088A1142218A1500380319BC2DB2
:101B7000B00AB4000020B12D2C08A1002C08063CAE
:101B800003190A2E2C08B0000330B2008A11632713
:101B90008A15B101300831020318DC2DB201320878
:101BA0008A1125208A1500380319DA2DB20AB400EB
:101BB0000020CF2DB10ACA2DB1013108093C031C08
:101BC000E62DFF30B4000020B10ADD2DB101300850
:101BD00031020318F92DB20132088A1125208A1525
:101BE00000380319F72DB20AB4000020EC2DB10A19
:101BF000E72D0430B2008A1163278A15B20132083A
:101C00008A112C208A15003803190A2EB20AB40052
:101C10000020FF2D2C08F80000340A108A140A1541
:101C20008207BF2CCC2CD92CE62CF32C002D0D2DAB
:101C30000A108A140A158207232D302D3D2D4A2DB6
:101C4000572D642D712D871A552E4030A6008A110C
:101C5000CC278A1583168801831288018A11D82718
:101C60008A150130B2008A1163278A15AF012F0847
:101C70008A115B218A1500380319422EAF0AB4007D
:101C80000020372E0230B2008A1163278A15AF0177
:101C90002F088A1174218A1500380319532EAF0AB0
:101CA000B4000020482E2E10562E2E1400302E1870
:101CB0000130F8000034851AD52E0430A6008A11B0
:101CC000CC278A150130B2008A1163278A15AE012C
:101CD0002E088A118D218A1500380319732EAE0A39
:101CE000B4000020682E0230B2008A1163278A15E2
:101CF000AE012E088A11A6218A1500380319842EF8
:101D0000AE0AB4000020792E201D882EA019CD2EF9
:101D1000831688011030831288008A11D8278A150B
:101D20002B10AD010130AC002D08033C031CCD2E5F
:101D3000031D9E2E2C08E83C031CCD2E2408AE006B
:101D4000AE0AAE030319B52EFF30AF000330AF0269
:101D5000031CB42E2F308400831300080319B42E03
:101D6000B22EB22E800BB12EA12E2308AF0003306D
:101D7000AF02031CC52E2F30840083130008031903
:101D8000C52EC32EC32E800BC22E2326F80803199E
:101D9000CD2EAC0A0319AD0A942E83168801831246
:101DA00088018A11D8278A15D62E2B1400302B18BB
:101DB0000130F8000034A0152A142030A6008A1142
:101DC000CC278A150230B2008A1163278A15AB012D
:101DD0002B088A111D228A1500380319F32EAB0A2D
:101DE000B4000020E82E6324F8080319092F0230FC
:101DF000B2008A1163278A15AB012B088A1135229C
:101E00008A1500380319082FAB0AB4000020FD2EF4
:101E10002A102326F80803195F2F5B26F8080319F8
:101E20005F2F2A1C5F2F88168A11D8278A15071B57
:101E30005E2F88128A11D8278A15871B312F02300E
:101E4000B2008A1163278A15AB012B088A114E2232
:101E50008A1500380319302FAB0AB4000020252F53
:101E60005D2F0130B2008A1163278A15AB012B0860
:101E70008A1167228A1500380319422FAB0AB40071
:101E80000020372F0230B2008A1163278A15AB0178
:101E90002B088A11A6218A1500380319532FAB0A83
:101EA000B4000020482F8030A6008A11CC278A1564
:101EB00088178A11D8278A1520162A10092FA612EA
:0A1EC0008A11CC278A15A011003406
:1020000020140130A6000A12CC270A162012A701BC
:102010002914A9100230B2000A1263270A16AA0175
:102020002A080A12F4220A16003803191F28AA0ADD
:10203000B4000A128A1500200A168A1110280A1202
:102040008A1523260A168A11F8080319D2280A12BB
:102050008A155B260A168A11F8080319D228291C4A
:10206000D228051935282910A9140A128A156324C3
:102070000A168A117808A8002808063C031D67285C
:1020800008100811881108120A12D8270A162910F8
:102090008030A6000A12CC270A1688170A12D82701
:1020A0000A160230B2000A1263270A16AA012A0889
:1020B0000A1291220A16003803196628AA0AB400E7
:1020C0000A128A1500200A168A115728D1282808D2
:1020D000013C0318882808140815881108160A12EC
:1020E000D8270A160230B2000A1263270A16AA017C
:1020F0002A080A1210230A16003803198728AA0A88
:10210000B4000A128A1500200A168A117828D128EC
:10211000280BA72808140811881508160A12D827B2
:102120000A160230B2000A1263270A16AA012A0808
:102130000A1227230A1600380319A628AA0AB4008F
:102140000A128A1500200A168A119728D128081029
:102150000811881108120A12D8270A162910261009
:102160000A30B0000A124F270A160A128A15DB2617
:102170000A168A11201AD1280230B2000A126327E7
:102180000A16AA012A080A123E230A160038031961
:10219000D128AA0AB4000A128A1500200A168A1148
:1021A000C2281F28A91CFB280230B2000A1263278C
:1021B0000A16AA012A080A12DC220A160038031994
:1021C000E928AA0AB4000A128A1500200A168A1100
:1021D000DA2808100811881108120A12D8270A16DE
:1021E0000C30AA00FA30B0000A124F270A16AA0BC8
:1021F000F2280330A700201026100A12CC270A1656
:10220000003420152A140230B2000A1263270A167D
:10221000AB012B080A12BE210A160038031918292F
:10222000AB0AB4000A128A1500200A168A1109297D
:102230001030A6000A12CC270A16071F3729871F5D
:1022400037290230B2000A1263270A16AB012B08A5
:102250000A12D5210A16003803193629AB0AB40030
:102260000A128A1500200A168A1127292A100A1232
:102270008A1523260A168A11F8080319A1290A12B9
:102280008A155B260A168A11F8080319A1292A1C47
:10229000A12908170A12D8270A16871FA029081390
:1022A0000A12D8270A16071F6B290230B2000A1239
:1022B00063270A16AB012B080A12EE210A16003812
:1022C00003196A29AB0AB4000A128A1500200A16FB
:1022D0008A115B299F290130B2000A1263270A166E
:1022E000AB012B080A1205220A16003803198029AF
:1022F000AB0AB4000A128A1500200A168A11712945
:102300000230B2000A1263270A16AB012B080A1228
:10231000A6210A16003803199529AB0AB4000A123F
:102320008A1500200A168A1186298030A6000A1212
:10233000CC270A1688170A12D8270A16A0162A10C0
:102340003729261220110A12CC270A160034A014AD
:10235000A012A7012914A9100230B2000A126327A3
:102360000A16AA012A080A1254230A160038031969
:10237000C129AA0AB4000A128A1500200A168A1175
:10238000B22901210230A6000A12CC270A16A01A8F
:1023900029100A30B0000A124F270A160A128A15AD
:1023A00023260A168A11F8080319762A0A128A15B2
:1023B0005B260A168A11F8080319762A291C762A40
:1023C0000A128A1563240A168A117808A80085194A
:1023D000EB292910A9142808063C031D162A881089
:1023E0000811881108120A12D8270A1629108030FD
:1023F000A6000A12CC270A1688170A12D8270A162E
:102400000230B2000A1263270A16AA012A080A1229
:1024100069230A1600380319152AAA0AB4000A12F9
:102420008A1500200A168A11062A752A2808033CF4
:10243000031C372A88140815881108160A12D82791
:102440000A160230B2000A1263270A16AA012A08E5
:102450000A127F230A1600380319362AAA0AB40082
:102460000A128A1500200A168A11272A752A2808B6
:10247000043C031D582A88140811881508160A12EE
:10248000D8270A160230B2000A1263270A16AA01D8
:102490002A080A1297230A1600380319572AAA0A8B
:1024A000B4000A128A1500200A168A11482A752AD1
:1024B00088100811881108120A12D8270A16291044
:1024C0000230B2000A1263270A16AA012A080A1269
:1024D000AF230A1600380319752AAA0AB4000A1293
:1024E0008A1500200A168A11662ACE29A91C9F2A5D
:1024F0000230B2000A1263270A16AA012A080A1239
:10250000DC220A16003803198D2AAA0AB4000A121E
:102510008A1500200A168A117E2A8810081188114F
:1025200008160A12D8270A160C30AA00FA30B00092
:102530000A124F270A16AA0B962A0430A700A010E9
:10254000A6100A12CC270A1600342014A701291459
:10255000A9100830A6000A12CC270A160230B200D1
:102560000A1263270A16AA012A080A127F220A16EB
:1025700000380319C32AAA0AB4000A128A150020D7
:102580000A168A11B42A0A128A1523260A168A11F3
:10259000F80803193E2B0A128A155B260A168A11BF
:1025A000F80803193E2B291C3E2B0519D92A29109E
:1025B000A9140A128A1563240A168A117808A80039
:1025C0002808063C031D012B0810081108120A12E6
:1025D000D8270A160230B2000A1263270A16AA0187
:1025E0002A080A1291220A1600380319FF2AAA0A99
:1025F000B4000A128A1500200A168A11F02A29103E
:102600003D2B2808023C0318212B08140815081636
:102610000A12D8270A160230B2000A1263270A16D5
:10262000AA012A080A12AA220A1600380319202B26
:10263000AA0AB4000A128A1500200A168A11112B60
:102640003D2B0810081108120A12D8270A16291063
:102650000230B2000A1263270A16AA012A080A12D7
:10266000C3220A16003803193D2BAA0AB4000A1225
:102670008A1500200A168A112E2BC32AA91C672B43
:102680000230B2000A1263270A16AA012A080A12A7
:10269000DC220A1600380319552BAA0AB4000A12C4
:1026A0008A1500200A168A11462B08100811881175
:1026B00008160A12D8270A160C30AA00FA30B00001
:1026C0000A124F270A16AA0B5E2B0330A700201010
:1026D00026120A12CC270A168A110A16C42B840164
:1026E00083131F308305193083169900A630980094
:1026F00090308312980083161F149F141F159F118A
:1027000007309C008312A011FF30A200B830A30054
:102710000B30A400810183160108C03907388100FD
:10272000640083128B16C0308B04FF308316850043
:102730008601870088008801890188018312880149
:102740000A127F2C0A160A128A154C2B0A168A11B5
:10275000A6012010A0102011A011A01220120730F5
:10276000A100A701871EF52B0A128A1563240A16F9
:102770008A118519BD2B0020DD2B0519C12BA7213E
:10278000DD2B051AC52BA52ADD2B8518C92B0121A8
:10279000DD2B0518D12B0A128A15DB260A168A11A1
:1027A000DD2B851ADD2BA6130A12CC270A168813F7
:1027B0000A12D8270A160730A10001302702FC3E72
:1027C0000318F02B043E2B2C0A128A15DB260A165E
:1027D0008A11F02B0121F02BA721F02B0020F02BE8
:1027E00026130A12CC270A16292C0130B500B60090
:1027F0000A1237260A16A80128080A125B210A16AF
:10280000003803190B2CA80AB4000A128A150020FC
:102810000A168A11FC2B0130B5000230B6000A12EC
:1028200037260A16A80128080A1267240A16003853
:102830000319222CA80AB4000A128A1500200A16CD
:102840008A11132C4030A6000A12CC270A16073032
:10285000A100B22B63000A108A100A158207E42B2C
:06286000EA2BEC2BEE2B2D
:02400E003A3F37
:00000001FF
;PIC16F877A
;CRC=A095  CREATED="07-Thg1-12 15:47"
